:020000040800F2
:1000000000000820E54600086D0A0008750A00088F
:100010007D0A0008850A00088D0A0008000000001B
:10002000000000000000000000000000950A000829
:10003000A30A000800000000B10A0008BF0A000877
:1000400035470008354700083547000835470008A0
:100050003547000835470008354700083547000890
:100060003547000835470008354700083547000880
:100070003547000835470008354700083547000870
:100080003547000835470008354700083547000860
:100090003547000835470008354700083547000850
:1000A0003547000835470008354700083547000840
:1000B0003547000835470008354700083547000830
:1000C0003547000835470008354700083547000820
:1000D0003547000835470008354700083547000810
:1000E0003547000835470008354700083547000800
:1000F00035470008354700083547000835470008F0
:1001000035470008354700083547000835470008DF
:100110003547000835470008CD0A00083547000874
:1001200035470008354700083547000835470008BF
:1001300035470008354700083547000835470008AF
:10014000354700083547000835470008354700089F
:10015000354700083547000835470008354700088F
:10016000354700083547000835470008354700087F
:1001700035470008354700083547000800000000F3
:10018000354700083547000835470008354700085F
:10019000354700083547000835470008354700084F
:1001A000354700083547000835470008354700083F
:1001B000354700083547000835470008354700082F
:1001C00035470008354700080000000035470008A3
:1001D000354700083547000835470008354700080F
:1001E00035470008354700083547000835470008FF
:0801F0003547000835470008FF
:1001F80010B5054C237833B9044B13B10448AFF359
:1002080000800123237010BD4C0100200000000075
:100218009047000808B5034B1BB103490348AFF3E7
:10022800008008BD00000000500100209047000831
:1002380053B94AB9002908BF00281CBF4FF0FF3145
:100248004FF0FF3000F088B9ADF1080C6DE904CE2D
:1002580000F006F8DDF804E0DDE9022304B0704799
:100268002DE9F047089D0F4604468C46002B48D1DF
:100278008A42164661D9B2FA82F34BB1C3F1200221
:1002880001FA03FC20FA02F29E4042EA0C0C9C4060
:100298004FEA164EB7B2BCFBFEF1220C0EFB11CC96
:1002A80042EA0C4201FB07F0904209D9B21801F169
:1002B800FF3C80F0EE80904240F2EB8002393244FD
:1002C800121AA4B2B2FBFEF00EFB102244EA02445A
:1002D80000FB07F7A74209D9341900F1FF3280F073
:1002E800DA80A74240F2D7803444023840EA01401D
:1002F800E41B00211DB1DC400023C5E90043BDE833
:10030800F0878B4206D90DB1C5E9000100210846E6
:10031800BDE8F087B3FA83F1002948D1BB4202D384
:10032800824200F20781841A67EB03020120944697
:10033800002DE4D0C5E9004CE1E7002A00F09280E6
:10034800B2FA82F3002B40F0A8808A1A4FEA164EC0
:100358001FFA86FC0121200CB2FBFEF70EFB1722C8
:1003680040EA02420CFB07F0904207D9B21807F1A5
:10037800FF3802D2904200F2E2804746121AA4B235
:10038800B2FBFEF00EFB102244EA02440CFB00FC18
:10039800A44507D9341900F1FF3202D2A44500F26E
:1003A800CB801046A4EB0C0440EA0740A2E7C1F159
:1003B80020068B4022FA06FC4CEA030C07FA01F4EB
:1003C80020FA06F3F7404FEA1C49234300FA01F8E4
:1003D8001FFA8CFEB7FBF9F01C0C09FB107744EAF6
:1003E800074400FB0EF7A74202FA01F20AD91CEBF8
:1003F800040400F1FF3A80F09B80A74240F2988005
:1004080002386444E41B9FB2B4FBF9F309FB1344BC
:1004180047EA044403FB0EFEA64509D91CEB040475
:1004280003F1FF3780F08280A6457FD9023B644400
:1004380043EA0040A4EB0E04A0FB02E7BC4273466B
:10044800B94663D360D05DB1B8EB030264EB09042D
:1004580004FA06F622FA01F31E43CC40C5E900640B
:1004680000214CE76208480842EAC1710B0C43EAD4
:1004780000438AB242EA0342B3FBF6F1E407B4460A
:100488003746B6461F23B0FBF6F0D21B41EA0041BF
:1004980061E7614614E7104628E7C3F1200120FA16
:1004A80001F29E4027FA01F19F403A434FEA164E67
:1004B8001FFA86FCB1FBFEF70EFB1710110C41EA80
:1004C800004107FB0CF8884504FA03F43AD971187F
:1004D80007F1FF3001D288451FD8A1EB0801B1FB15
:1004E800FEF808FB0CF70EFB181192B242EA014223
:1004F800BA422FD2B21808F1FF31C6D2BA42C4D2DA
:10050800A8F102013244C0E7F0459CD2BEEB0203D9
:1005180067EB0C070138B94695E7A6EB0808414494
:10052800B81EB1FBFEF808FB0CF7DCE73B467FE79B
:10053800504667E70846FBE63444023832E7023F94
:1005480032441BE7A1EB08013846B1FBFEF808FB73
:100558000CF7C8E7414698E7704700BF80B500AF81
:100568001F4B204A1A60204B00221A701E4B802213
:100578005A701D4BE1229A701B4B0022DA701A4BFD
:1005880000221A71184B00225A71154B164A5A60EC
:10059800134B4FF400029A60114B144ADA60104B67
:1005A800134A1A610E4B40F2F4525A610C4800F09B
:1005B80045FE0346002B01D000F02AFA382200211C
:1005C8000C4804F0B4F80B4B21221A60094B4FF485
:1005D80040025A61074B00221A6100BF80BD00BF6C
:1005E800A00100200080024050020020AC00002042
:1005F8000C0000206801002080B58EB000AF786044
:1006080007F1240300221A605A609A60DA601A61BE
:100618007B681B684E4A934240F096804D4B1B6B9B
:100628004C4A43F0007313634A4B1B6B03F000738F
:100638003B623B6A474B1B6B464A43F0806313633C
:10064800444B1B6B03F08063FB61FB69414B1B6BE5
:10065800404A43F0006313633E4B1B6B03F0006397
:10066800BB61BB693B4B1B6B3A4A43F00403136302
:10067800384B1B6B03F004037B617B69354B1B6BA9
:10068800344A43F001031363324B1B6B03F001033D
:100698003B613B692F4B1B6B2E4A43F002031363EC
:1006A8002C4B1B6B03F00203FB60FB68294B1B6B95
:1006B800284A43F040031363264B1B6B03F04003A7
:1006C800BB60BB6832237B620223BB620023FB62F0
:1006D80002233B630B237B6307F1240319461E485F
:1006E80001F0FAF886237B620223BB620023FB62D7
:1006F80002233B630B237B6307F124031946174846
:1007080001F0EAF84FF400537B620223BB62002336
:10071800FB6202233B630B237B6307F12403194627
:100728000F4801F0D9F84FF420537B620223BB62D3
:100738000023FB6202233B630B237B6307F1240343
:100748001946084801F0C8F800BF3837BD4680BDD3
:1007580000800240003802400008024000000240C9
:10076800000402400018024080B58CB000AF07F1C9
:100778001C0300221A605A609A60DA601A61474BBB
:100788001B6B464A43F004031363444B1B6B03F093
:100798000403BB61BB69414B1B6B404A43F08003B8
:1007A80013633E4B1B6B03F080037B617B693B4B00
:1007B8001B6B3A4A43F001031363384B1B6B03F07E
:1007C80001033B613B69354B1B6B344A43F0020321
:1007D8001363324B1B6B03F00203FB60FB682F4B68
:1007E8001B6B2E4A43F0080313632C4B1B6B03F05F
:1007F8000803BB60BB68294B1B6B284A43F04003C6
:100808001363264B1B6B03F040037B607B6800225D
:1008180044F28101224801F00BFA002240212148CC
:1008280001F006FA4FF40053FB614FF488133B6262
:1008380000237B6207F11C0319461B4801F04CF8A2
:1008480044F28103FB6101233B6200237B620023A6
:10085800BB6207F11C031946114801F03DF840231B
:10086800FB6101233B6200237B620023BB6207F12B
:100878001C0319460B4801F02FF88023FB61002365
:100888003B6200237B6207F11C031946054801F00F
:1008980023F800BF3037BD4680BD00BF0038024096
:1008A80000040240001802400008024080B500AF72
:1008B80000F082F800F0B6FA00F00CF8FFF754FFE9
:1008C800FFF74CFE00F01AF900F074F900F002FA94
:1008D80000BFFDE780B594B000AF07F11C033422D8
:1008E8000021184603F023FF07F1080300221A60CD
:1008F8005A609A60DA601A6101F0EEFA2C4B1B6CB0
:100908002B4A43F080531364294B1B6C03F080532C
:100918007B607B68274B1B6823F44043254A43F4DC
:1009280080431360234B1B6803F440433B603B68E0
:100938000123FB614FF4A0233B6202237B634FF446
:100948008003BB630423FB6360233B6402237B6453
:100958000423BB640223FB6407F11C03184601F05F
:100968001BFB0346002B01D000F052F801F0C4FA3B
:100978000346002B01D000F04BF80F23BB60022385
:10098800FB6000233B614FF480537B610023BB6114
:1009980007F108030321184601F0ACFD0346002BBC
:1009A80001D000F035F800BF5037BD4680BD00BF0C
:1009B800003802400070004080B584B000AF3B466C
:1009C80000221A605A609A60DA6000F0BFFB0123C7
:1009D8003B7000237B7000237B601F233B728723BF
:1009E8007B720023BB720023FB7201233B7301233C
:1009F8007B730023BB730023FB733B46184600F050
:100A0800DDFB042000F0BAFB00BF1037BD4680BDF7
:100A180080B400AF72B600BF00BFFDE780B483B0FA
:100A280000AF0F4B1B6C0E4A43F0805313640C4B02
:100A38001B6C03F080537B607B68094B5B6C084A36
:100A480043F480435364064B5B6C03F480433B6080
:100A58003B6800BF0C37BD465DF8047B704700BF9C
:100A68000038024080B400AF00BFFDE780B400AF9B
:100A780000BFFDE780B400AF00BFFDE780B400AF62
:100A880000BFFDE780B400AF00BFFDE780B400AF52
:100A980000BFBD465DF8047B704780B400AF00BF5F
:100AA800BD465DF8047B704780B400AF00BFBD460B
:100AB8005DF8047B704780B500AF00F0F1F900BF26
:100AC80080BD000080B500AF024802F0B8FB00BF4F
:100AD80080BD00BF5802002080B400AF064BD3F899
:100AE8008830054A43F47003C2F8883000BFBD4619
:100AF8005DF8047B704700BF00ED00E080B584B06E
:100B080000AF3B1D00221A605A609A60144B154AC8
:100B18001A60134B00225A60114B00229A60104B46
:100B28004FF6FF72DA600E4B00229A610C4802F011
:100B38002FFB0346002B01D0FFF76AFF00237B60E1
:100B48000023FB603B1D1946054802F057FD03468C
:100B5800002B01D0FFF75CFF00BF1037BD4680BDFA
:100B6800580200200010004080B584B000AF7860C3
:100B78007B681B680D4A934213D10D4B1B6C0C4AC2
:100B880043F0100313640A4B1B6C03F01003FB6063
:100B9800FB6800220021362000F0A1FA362000F080
:100BA800BAFA00BF1037BD4680BD00BF0010004034
:100BB8000038024080B500AF144B154A1A60134B39
:100BC8004FF4E1325A60114B00229A600F4B002219
:100BD800DA600E4B00221A610C4B0C225A610B4B47
:100BE80000229A61094B0022DA61084B00221A623E
:100BF800064B00225A62054802F0ACFD0346002B62
:100C080001D0FFF705FF00BF80BD00BFA402002090
:100C18000048004080B5AEB000AF786007F1A4038B
:100C280000221A605A609A60DA601A6107F11403A8
:100C380090220021184603F07AFD7B681B68224A3F
:100C480093423CD14FF480737B6100233B6607F1EC
:100C58001403184601F074FE0346002B01D0FFF779
:100C6800D7FE1A4B1B6C194A43F480231364174BA5
:100C78001B6C03F480233B613B69144B1B6B134AC9
:100C880043F008031363114B1B6B03F00803FB606D
:100C9800FB684FF44073C7F8A4300223C7F8A830A4
:100CA8000023C7F8AC300323C7F8B0300723C7F8D0
:100CB800B43007F1A4031946054800F00DFE00BF43
:100CC800B837BD4680BD00BF00480040003802402C
:100CD800000C024080B500AF144B4FF0A0421A60E0
:100CE800124B06221A71114B0222DA710F4B0022A5
:100CF8009A710E4B02225A720C4B01229A720B4BBC
:100D08000022DA72094B00221A73084B01229A73E7
:100D1800064B0022DA73054800F0A3FF0346002BB8
:100D280001D0FFF775FE00BF80BD00BF2C03002077
:100D380080B5AEB000AF786007F1A40300221A6056
:100D48005A609A60DA601A6107F114039022002150
:100D5800184603F0ECFC7B681B68B3F1A04F59D12F
:100D68004FF400137B610023C7F8903007F1140398
:100D7800184601F0E5FD0346002B01D0FFF748FEB9
:100D8800264B1B6B254A43F001031363234B1B6B54
:100D980003F001033B613B694FF4E853C7F8A43003
:100DA8000223C7F8A8300023C7F8AC300323C7F8DC
:100DB800B0300A23C7F8B43007F1A403194618481D
:100DC80000F08AFD4FF40073C7F8A4300023C7F879
:100DD800A8300023C7F8AC3007F1A403194610481F
:100DE80000F07AFD0D4B5B6B0C4A43F080035363B4
:100DF8000A4B5B6B03F08003FB60FB68074B5B6C83
:100E0800064A43F480435364044B5B6C03F4804309
:100E1800BB60BB6800BFB837BD4680BD0038024024
:100E28000000024080B500AF032000F04DF900201B
:100E380000F006F8FFF7F2FD0023184680BD000019
:100E480080B582B000AF7860124B1A68124B1B78DD
:100E580019464FF47A73B3FBF1F3B2FBF3F3184678
:100E680000F067F90346002B01D001230EE07B68F0
:100E78000F2B0AD8002279684FF0FF3000F02FF9C5
:100E8800064A7B681360002300E0012318460837F0
:100E9800BD4680BD0000002008000020040000209E
:100EA80080B400AF064B1B781A46064B1B681344E8
:100EB800044A136000BFBD465DF8047B704700BF5D
:100EC800080000200C08002080B400AF034B1B680A
:100ED8001846BD465DF8047B704700BF0C0800202B
:100EE80080B584B000AF7860FFF7EEFFB8607B682C
:100EF800FB60FB68B3F1FF3F05D00A4B1B781A462D
:100F0800FB681344FB6000BFFFF7DEFF0246BB68C7
:100F1800D31AFA689A42F7D800BF00BF1037BD4607
:100F280080BD00BF0800002080B485B000AF7860A5
:100F38007B6803F00703FB600B4BDB68BB60BA6898
:100F48004FF6FF031340BB60FB681A02BB681A43E5
:100F5800064B1343BB60044ABB68D36000BF143719
:100F6800BD465DF8047B704700ED00E00000FA051F
:100F780080B400AF044BDB681B0A03F00703184674
:100F8800BD465DF8047B704700ED00E080B483B097
:100F980000AF0346FB7197F90730002B0BDBFB7999
:100FA80003F01F02074997F907305B09012000FA8F
:100FB80002F241F8232000BF0C37BD465DF8047BE0
:100FC800704700BF00E100E080B483B000AF034683
:100FD8003960FB7197F90730002B0ADB3B68DAB2FE
:100FE8000C4997F907301201D2B20B4483F8002359
:100FF8000AE03B68DAB20849FB7903F00F03043BC7
:101008001201D2B20B441A7600BF0C37BD465DF808
:10101800047B704700E100E000ED00E080B489B097
:1010280000AFF860B9607A60FB6803F00703FB6102
:10103800FB69C3F10703042B28BF0423BB61FB69C9
:101048000433062B02D9FB69033B00E000237B61D4
:101058004FF0FF32BB6902FA03F3DA43BB681A4068
:101068007B699A404FF0FF317B6901FA03F3D9435A
:101078007B680B40134318462437BD465DF8047B54
:101088007047000080B582B000AF78607B68013B94
:10109800B3F1807F01D301230FE00A4A7B68013B4B
:1010A80053600F214FF0FF30FFF78EFF054B0022F2
:1010B8009A60044B07221A60002318460837BD4679
:1010C80080BD00BF10E000E080B582B000AF78605E
:1010D8007868FFF729FF00BF0837BD4680BD80B597
:1010E80086B000AF0346B9607A60FB7300237B616A
:1010F800FFF73EFF78617A68B9687869FFF78EFF75
:10110800024697F90F3011461846FFF75DFF00BFFA
:101118001837BD4680BD80B582B000AF0346FB716D
:1011280097F907301846FFF731FF00BF0837BD466B
:1011380080BD80B582B000AF78607868FFF7A2FF05
:10114800034618460837BD4680BD000080B400AF8E
:10115800BFF35F8F00BF074B5B6A064A23F48033F7
:101168005362054B00225A6000BFBD465DF8047B00
:10117800704700BF00ED00E090ED00E080B483B060
:1011880000AF78600B4A7B6843F0010353600A4B59
:101198005B6A094A43F480335362BFF34F8F00BF41
:1011A800BFF36F8F00BF00BF0C37BD465DF8047BEF
:1011B800704700BF90ED00E000ED00E080B483B020
:1011C80000AF78607B685A781B4B9A601A4B1B6992
:1011D800194A23F001031361174A7B685B68D360DF
:1011E8007B681B7B1A077B68DB7A1B061A437B68C4
:1011F8009B7ADB041A437B685B7B9B041A437B68FE
:101208009B7B5B041A437B68DB7B1B041A437B686C
:101218005B7A1B021A437B681B7A5B0013437A686C
:1012280012781146044A0B43136100BF0C37BD46C0
:101238005DF8047B704700BF90ED00E080B584B096
:1012480000AF78607B68002B01D1012386E07B68C2
:10125800D3F88430002B06D17B682022C3F8842081
:101268007868FFF7C9F93F4B5B6C3E4A43F480430B
:1012780053643C4B5B6C03F48043BB60BB683A4BE4
:101288005B68394A23F400035360374B5A687B681C
:101298009B68354913434B60334B5B687B681B681D
:1012A80003F580531B687A68126843F0010302F55E
:1012B80080521360FFF708FEF86011E0FFF704FEA4
:1012C8000246FB68D31AB3F5FA7F09D97B68042272
:1012D800C3F888207B68E022C3F8842001233DE01E
:1012E8007B681B6803F580531B6803F00103002B20
:1012F800E4D1786800F07AF9786800F025FA78681F
:1013080000F07BFA7B685B681A460021786800F079
:10131800E3F97B681B68DA6B7B681B6842F402722E
:10132800DA637B681B68D3F80C117B681A680F4B6B
:101338000B43C2F80C317B681B68D3F810217B681B
:101348001B6842F40312C3F810217B680022C3F81B
:1013580088207B681022C3F88420002318461037A1
:10136800BD4680BD003802400038014060000200E0
:1013780080B584B000AF786039607B681B681B68F3
:10138800FB60FA68534B1340FB603B689B7B5B0632
:101398003A68127C002A02D14FF4000200E00022D1
:1013A80013433A68527C002A02D14FF4800200E0CD
:1013B80000221A433B689B681A433B68DB7F1B0487
:1013C8001A433B685B6913433A68927F002A02D14B
:1013D8004FF4005200E000221A433B681B7F1B03B6
:1013E8001A433B689B691A433B681B799B0213436A
:1013F8003A6892F82020002A02D14FF4007200E0E7
:1014080000221A433B68DB7BDB011A433B685B6ABB
:101418001A433B6893F828301B011343FA681343B7
:10142800FB607B681B68FA681A607B681B681B682E
:10143800FB600120FFF754FD7B681B68FA681A609F
:101448007B681B689B69FB60FA684FF64173134021
:10145800FB603B689B6C1B043A6892F84C20002A9E
:1014680001D1802200E000221A433B681B6D134320
:101478003A6892F85520012A01D1082200E000229A
:1014880013433A6892F85620012A01D1042200E059
:10149800002213433A6892F85420012A01D102220B
:1014A80000E000221343FA681343FB607B681B6863
:1014B800FA689A617B681B689B69FB600120FFF7EB
:1014C8000FFD7B681B68FA689A6100BF1037BD463C
:1014D80080BD00BF0F8120FD80B584B000AF78606B
:1014E80039607B681B6803F580539B69FB60FA6869
:1014F8003D4B1340FB603B681B7B002B02D14FF038
:10150800806200E000223B685B7B5B0613433A681D
:10151800527F002A02D14FF4801200E000221A43C1
:101528003B689B7B5B051A433B685B691A433B68D6
:101538001B7FDB011A433B689B7F9B011A433B6877
:101548001B6A1A433B6893F824309B001343FA68DC
:101558001343FB607B681B6803F580531A46FB68DE
:1015680093617B681B6803F580539B69FB600120CE
:10157800FFF7B6FC7B681B6803F580531A46FB68C7
:1015880093613B681B795A063B689B681A433B6822
:101598009B691A433B681B691A433B6893F82530DB
:1015A800DB011A433B689B6A9B001A433B681B6834
:1015B80013437A68126843F4000302F580521360FB
:1015C8007B681B6803F580531B68FB600120FFF7ED
:1015D80087FC7B681B6803F580531A46FB68136019
:1015E80000BF1037BD4680BD233FDEF880B5A6B0EA
:1015F80000AF7860012387F84430012387F845302D
:101608000023FB63002387F85330012387F8523007
:10161800002387F85030012387F84230012387F8E8
:101628003830002387F85430002387F843300023EC
:10163800BB65002387F85C300023FB67002387F82D
:1016480080300023C7F88430002387F88A300023CD
:1016580087F888304FF48043BB644FF40063FB6421
:10166800002387F8893007F1340319467868FFF7B3
:101678007FFE01233B7501237B75012387F8253005
:101688000123BB750023FB61002387F82430002366
:1016980087F826300023BB62012387F82C3001230A
:1016A8003B734FF480333B614FF480033B624FF44C
:1016B8000053BB61012387F82D3000233B630023CF
:1016C800BB6007F1080319467868FFF705FF00BFFC
:1016D8009837BD4680BD000080B487B000AFF86081
:1016E800B9607A607B6805331B781B027A6804321C
:1016F800127813437B61BA68114B13441A467B690D
:1017080013607B6803331B781A067B6802331B78E7
:101718001B041A437B6801331B781B0213437A6846
:10172800127813437B61BA68064B13441A467B69E7
:10173800136000BF1C37BD465DF8047B704700BFCF
:10174800408002404480024080B485B000AF786099
:101758000023FB603EE07B68D968FA6813469B006B
:101768001344DB000B44BB60BB6800221A60BB68F3
:1017780000225A60BB6800229A60BB680022DA60C7
:10178800B9687B68FA68063243F82210BB681B68A0
:1017980043F48012BB681A60FB68022B0CD87B6884
:1017A800D968FB685A1C13469B001344DB000B44A2
:1017B8001A46BB68DA6004E07B68DB681A46BB68D7
:1017C800DA60BB681B6843F44002BB681A60FB68B8
:1017D8000133FB60FB68032BBDD97B6800229A624A
:1017E8007B68DA687B681B6803F580531A6100BF61
:1017F8001437BD465DF8047B704780B485B000AFF0
:1018080078600023FB6048E07B681969FA68134632
:101818009B001344DB000B44BB60BB6800221A60CA
:10182800BB6800225A60BB6800229A60BB6800222D
:10183800DA60BB6800221A62BB6800225A62BB6881
:101848004FF000421A607B685B6943F48042BB68D2
:101858005A60BB685B6823F00042BB685A60B9688D
:101868007B68FA68123243F82210FB68022B0CD806
:101878007B681969FB685A1C13469B001344DB00FC
:101888000B441A46BB68DA6004E07B681B691A4699
:10189800BB68DA60FB680133FB60FB68032BB3D9D4
:1018A8007B680022DA657B6800221A667B68002262
:1018B8009A667B680022DA667B6800229A657B68F4
:1018C8001A697B681B6803F58053DA6000BF143718
:1018D800BD465DF8047B704780B489B000AF78607E
:1018E80039600023FB6100237B6100233B610023F7
:1018F800BB610023FB6175E10122FB6902FA03F376
:101908007B613B681B687A6913403B613A697B6974
:101918009A4240F064813B685B6803F00303012B43
:1019280005D03B685B6803F00303022B30D17B686A
:101938009B68BB61FB695B00032202FA03F3DB438C
:10194800BA691340BB613B68DA68FB695B0002FA5D
:1019580003F3BA691343BB617B68BA699A607B6811
:101968005B68BB610122FB6902FA03F3DB43BA69D6
:101978001340BB613B685B681B0903F00102FB690C
:1019880002FA03F3BA691343BB617B68BA695A6008
:101998003B685B6803F00303032B17D07B68DB68A5
:1019A800BB61FB695B00032202FA03F3DB43BA69FC
:1019B8001340BB613B689A68FB695B0002FA03F35A
:1019C800BA691343BB617B68BA69DA603B685B68D4
:1019D80003F00303022B23D1FB69DA087B68083282
:1019E80053F82230BB61FB6903F007039B000F2209
:1019F80002FA03F3DB43BA691340BB613B681A6917
:101A0800FB6903F007039B0002FA03F3BA69134367
:101A1800BB61FB69DA087B680832B96943F82210B0
:101A28007B681B68BB61FB695B00032202FA03F356
:101A3800DB43BA691340BB613B685B6803F0030290
:101A4800FB695B0002FA03F3BA691343BB617B6865
:101A5800BA691A603B685B6803F44033002B00F0F6
:101A6800BE80664B5B6C654A43F480435364634BAA
:101A78005B6C03F48043FB60FB68614AFB699B086D
:101A8800023352F82330BB61FB6903F003039B0068
:101A98000F2202FA03F3DB43BA691340BB617B6888
:101AA800584A934237D07B68574A934231D07B6873
:101AB800564A93422BD07B68554A934225D07B687F
:101AC800544A93421FD07B68534A934219D07B688B
:101AD800524A934213D07B68514A93420DD07B6897
:101AE800504A934207D07B684F4A934201D1092359
:101AF80012E00A2310E008230EE007230CE0062377
:101B08000AE0052308E0042306E0032304E0022397
:101B180002E0012300E00023FA6902F003029200C8
:101B28009340BA691343BB613549FB699B0802338B
:101B3800BA6941F823203D4B9B68BB613B69DB4395
:101B4800BA691340BB613B685B6803F48013002BE0
:101B580003D0BA693B691343BB61344ABB699360DC
:101B6800324BDB68BB613B69DB43BA691340BB613D
:101B78003B685B6803F40013002B03D0BA693B6928
:101B88001343BB61294ABB69D360284B5B68BB61BF
:101B98003B69DB43BA691340BB613B685B6803F48C
:101BA8000033002B03D0BA693B691343BB611F4A5A
:101BB800BB6953601D4B1B68BB613B69DB43BA695A
:101BC8001340BB613B685B6803F48033002B03D090
:101BD800BA693B691343BB61144ABB691360FB696B
:101BE8000133FB61FB690F2B7FF686AE00BF00BF98
:101BF8002437BD465DF8047B704700BF00380240BB
:101C08000038014000000240000402400008024081
:101C1800000C02400010024000140240001802406C
:101C2800001C02400020024000240240003C014009
:101C380080B483B000AF78600B467B8013467B701E
:101C48007B78002B03D07A887B689A6103E07B88D5
:101C58001A047B689A6100BF0C37BD465DF8047BA7
:101C6800704780B586B002AF78607B68002B01D1E1
:101C7800012308E17B681B68BB607B6893F8953497
:101C8800DBB2002B06D17B68002283F894247868A5
:101C9800FFF74EF87B68032283F89524BB68B3F1FD
:101CA800A04F02D17B6800229A717B681B68184696
:101CB80002F078FA7B6818687B681A7C8DF8002037
:101CC80004330ECB02F014FA0346002B05D07B68D0
:101CD800022283F895240123D5E07B681B68002144
:101CE800184602F070FA0346002B05D07B680222E2
:101CF80083F895240123C6E00023FB734AE0FA7BAE
:101D080079681346DB0013449B000B44153301220A
:101D18001A70FA7B79681346DB0013449B000B4466
:101D28001433FA7B1A70FA7BFB7B98B279681346F6
:101D3800DB0013449B000B442E3302461A80FA7BC7
:101D480079681346DB0013449B000B4418330022C8
:101D58001A70FA7B79681346DB0013449B000B4426
:101D68001C3300221A60FA7B79681346DB0013449F
:101D78009B000B44203300221A60FA7B79681346D3
:101D8800DB0013449B000B44243300221A60FB7BC6
:101D98000133FB737B681B79FA7B9A42AFD300232C
:101DA800FB7344E0FA7B79681346DB0013449B001D
:101DB8000B4403F2552300221A70FA7B7968134604
:101DC800DB0013449B000B4403F51573FA7B1A7070
:101DD800FA7B79681346DB0013449B000B4403F538
:101DE800167300221A70FA7B79681346DB001344D5
:101DF8009B000B4403F5177300221A60FA7B79687D
:101E08001346DB0013449B000B4403F518730022B0
:101E18001A60FA7B79681346DB0013449B000B4475
:101E280003F5197300221A60FB7B0133FB737B688F
:101E38001B79FA7B9A42B5D37B6818687B681A7C51
:101E48008DF8002004330ECB02F00AFA0346002B6B
:101E580005D07B68022283F89524012313E07B6870
:101E680000225A747B68012283F895247B681B7BC7
:101E7800012B02D1786800F00BF87B681B681846C4
:101E880002F0C5FB002318461037BD4680BD000090
:101E980080B485B000AF78607B681B68FB607B68A6
:101EA8000122C3F8D8247B68002283F8CC24FB687D
:101EB8009B6943F00062FB689A61FB685A6D054BA9
:101EC8001343FA685365002318461437BD465DF876
:101ED800047B70470300001080B400AF054B1B68FB
:101EE800044A43F48073136000BFBD465DF8047B69
:101EF800704700BF0070004080B582B000AF00237B
:101F08007B60234B1B6C224A43F080531364204BA5
:101F18001B6C03F080533B603B681E4B1B681D4ADB
:101F280043F480331360FEF7CFFF786009E0FEF7D3
:101F3800CBFF02467B68D31AB3F57A7F01D9032316
:101F480022E0144B5B6803F48033B3F5803FEED195
:101F5800104B1B680F4A43F400331360FEF7B4FFBD
:101F6800786009E0FEF7B0FF02467B68D31AB3F544
:101F78007A7F01D9032307E0064B5B6803F400333B
:101F8800B3F5003FEED1002318460837BD4680BDA3
:101F9800003802400070004080B586B000AF78601D
:101FA8000023FB757B68002B01D101239BE27B6832
:101FB8001B6803F00103002B00F08780964B9B6899
:101FC80003F00C03042B0CD0934B9B6803F00C0319
:101FD800082B12D1904B5B6803F48003B3F5800F94
:101FE8000BD18D4B1B6803F40033002B6CD07B683E
:101FF8005B68002B68D1012375E27B685B68B3F5E9
:10200800803F06D1844B1B68834A43F480331360B6
:102018002EE07B685B68002B0CD17F4B1B687E4AE7
:1020280023F4803313607C4B1B687B4A23F48023A2
:1020380013601DE07B685B68B3F5A02F0CD1764B6D
:102048001B68754A43F480231360734B1B68724AFC
:1020580043F4803313600BE06F4B1B686E4A23F424
:10206800803313606C4B1B686B4A23F48023136026
:102078007B685B68002B13D0FEF726FF386108E009
:10208800FEF722FF02463B69D31A642B01D90323CA
:1020980029E2614B1B6803F40033002BF0D014E0F5
:1020A800FEF712FF386108E0FEF70EFF02463B69B3
:1020B800D31A642B01D9032315E2574B1B6803F489
:1020C8000033002BF0D100E000BF7B681B6803F0F1
:1020D8000203002B69D0504B9B6803F00C03002BC4
:1020E8000BD04D4B9B6803F00C03082B1CD14A4BBB
:1020F8005B6803F48003002B16D1474B1B6803F081
:102108000203002B05D07B68DB68012B01D001237B
:10211800E9E1414B1B6823F0F8027B681B69DB008F
:102128003D4913430B6040E07B68DB68002B23D0FC
:10213800394B1B68384A43F001031360FEF7C4FEAD
:10214800386108E0FEF7C0FE02463B69D31A022B4D
:1021580001D90323C7E1304B1B6803F00203002BAE
:10216800F0D02D4B1B6823F0F8027B681B69DB005D
:10217800294913430B6018E0274B1B68264A23F0B4
:1021880001031360FEF7A0FE386108E0FEF79CFE2D
:1021980002463B69D31A022B01D90323A3E11E4B44
:1021A8001B6803F00203002BF0D17B681B6803F067
:1021B8000803002B38D07B685B69002B19D0164BBD
:1021C8005B6F154A43F001035367FEF77DFE3861E4
:1021D80008E0FEF779FE02463B69D31A022B01D9C3
:1021E800032380E10C4B5B6F03F00203002BF0D05C
:1021F8001AE0094B5B6F084A23F001035367FEF7A7
:1022080063FE38610AE0FEF75FFE02463B69D31AB7
:10221800022B03D9032366E100380240924B5B6F1F
:1022280003F00203002BEED17B681B6803F0040364
:10223800002B00F0A4808C4B1B6C03F08053002B08
:102248000DD1894B1B6C884A43F080531364864B2D
:102258001B6C03F08053BB60BB680123FB75834B89
:102268001B6803F48073002B18D1804B1B687F4ACE
:1022780043F480731360FEF727FE386108E0FEF729
:1022880023FE02463B69D31A642B01D903232AE1B2
:10229800764B1B6803F48073002BF0D07B689B6837
:1022A800012B06D1704B1B6F6F4A43F00103136774
:1022B8002DE07B689B68002B0CD16B4B1B6F6A4A27
:1022C80023F001031367684B1B6F674A23F004036D
:1022D80013671CE07B689B68052B0CD1624B1B6F56
:1022E800614A43F0040313675F4B1B6F5E4A43F078
:1022F800010313670BE05C4B1B6F5B4A23F0010380
:102308001367594B1B6F584A23F0040313677B6804
:102318009B68002B15D0FEF7D7FD38610AE0FEF761
:10232800D3FD02463B69D31A41F28832934201D960
:102338000323D8E04C4B1B6F03F00203002BEED0B5
:1023480014E0FEF7C1FD38610AE0FEF7BDFD024664
:102358003B69D31A41F28832934201D90323C2E080
:10236800414B1B6F03F00203002BEED1FB7D012BC9
:1023780005D13D4B1B6C3C4A23F0805313647B68AA
:102388009B69002B00F0AE80374B9B6803F00C0371
:10239800082B6DD07B689B69022B4BD1324B1B6895
:1023A800314A23F080731360FEF78EFD386108E030
:1023B800FEF78AFD02463B69D31A022B01D9032393
:1023C80091E0294B1B6803F00073002BF0D17B6868
:1023D800DA697B681B6A1A437B685B6A9B011A434C
:1023E8007B689B6A5B08013B1B041A437B68DB6ABA
:1023F8001B061A437B681B6B1B071B4913434B6067
:10240800194B1B68184A43F080731360FEF75CFD94
:10241800386108E0FEF758FD02463B69D31A022BE3
:1024280001D903235FE0104B1B6803F00073002BF6
:10243800F0D057E00C4B1B680B4A23F080731360F5
:10244800FEF742FD386108E0FEF73EFD02463B69B3
:10245800D31A022B01D9032345E0034B1B6803F071
:102468000073002BF0D13DE00038024000700040BE
:102478001F4B5B68FB607B689B69012B30D0FB6856
:1024880003F480027B68DB699A4229D1FB6803F078
:102498003F027B681B6A9A4222D1FA6847F6C073EA
:1024A80013407A68526A9201934219D1FB6803F487
:1024B80040327B689B6A5B08013B1B049A420FD140
:1024C800FB6803F070627B68DB6A1B069A4207D1DF
:1024D800FB6803F0E0427B681B6B1B079A4201D044
:1024E800012300E0002318461837BD4680BD00BF11
:1024F8000038024080B584B000AF786039600023AE
:10250800FB607B68002B01D10123D0E06A4B1B687C
:1025180003F00F033A689A4210D9674B1B6823F0FF
:102528000F0265493B6813430B60634B1B6803F05C
:102538000F033A689A4201D00123B8E07B681B6810
:1025480003F00203002B20D07B681B6803F0040310
:10255800002B05D0594B9B68584A43F4E0539360CD
:102568007B681B6803F00803002B05D0534B9B685E
:10257800524A43F460439360504B9B6823F0F00247
:102588007B689B684D4913438B607B681B6803F02D
:102598000103002B40D07B685B68012B07D1474BB8
:1025A8001B6803F40033002B15D101237FE07B68FF
:1025B8005B68022B07D1414B1B6803F00073002BAB
:1025C80009D1012373E03D4B1B6803F00203002B84
:1025D80001D101236BE0394B9B6823F003027B6830
:1025E8005B68364913438B60FEF76EFCF8600AE0BF
:1025F800FEF76AFC0246FB68D31A41F2883293421E
:1026080001D9032353E02D4B9B6803F00C027B6830
:102618005B689B009A42EBD1274B1B6803F00F03C2
:102628003A689A4210D2244B1B6823F00F022249C1
:102638003B6813430B60204B1B6803F00F033A6899
:102648009A4201D0012332E07B681B6803F004033F
:10265800002B08D0194B9B6823F4E0527B68DB6899
:10266800164913438B607B681B6803F00803002B33
:1026780009D0124B9B6823F460427B681B69DB001E
:102688000E4913438B6000F021F802460B4B9B6800
:102698001B0903F00F030A49CB5C22FA03F3094A2A
:1026A8001360094B1B681846FEF7CAFB002318463F
:1026B8001037BD4680BD00BF003C024000380240D4
:1026C800A847000800000020040000202DE9B04FB2
:1026D80094B000AF00237B640023FB6400233B64B9
:1026E8000023BB64794B9B6803F00C03082B0DD0C7
:1026F800082B00F2E180002B02D0042B03D0DBE092
:10270800734BBB64DBE0734BBB64D8E06F4B5B6817
:1027180003F03F037B646D4B5B6803F48003002B7D
:1027280063D06A4B5B689B090022BB63FA63BB6B8F
:10273800C3F308033B6300237B63D7E90C452246B8
:102748002B464FF000004FF00001590141EAD261D9
:10275800500102460B462146511A3961294663EB5E
:1027680001037B614FF000024FF00003D7E904AB8F
:1027780059468B01514643EA916351468A015146B5
:10278800B2EB0108594663EB01094FF000024FF024
:1027980000034FEAC90343EA58734FEAC802904658
:1027A8009946234618EB0303BB602B4649EB03030A
:1027B800FB604FF000024FF00003D7E902452946BD
:1027C8004B02214643EAD15321464A021046194694
:1027D8007B6C0022BB62FA62D7E90A23FDF728FD69
:1027E80002460B461346FB6458E0384B5B689B096E
:1027F800002218461146C0F308033B6200237B629F
:10280800D7E9088942464B464FF000004FF00001D7
:10281800590141EAD261500102460B464146B2EBEA
:10282800010A494663EB010B4FF000024FF0000329
:102838004FEA8B1343EA9A634FEA8A12B2EB0A040F
:1028480063EB0B054FF000024FF00003EB0043EA87
:102858005473E20014461D464346E3183B604B465A
:1028680045EB03037B604FF000024FF00003D7E90C
:10287800004529468B02214643EA915321468A02A4
:10288800104619467B6C0022BB61FA61D7E9062322
:10289800FDF7CEFC02460B461346FB640B4B5B6808
:1028A8001B0C03F0030301335B003B64FA6C3B6CC5
:1028B800B2FBF3F3BB6402E0054BBB6400BFBB6C27
:1028C80018465037BD46BDE8B08F00BF00380240FB
:1028D8000024F40000127A0080B400AF034B1B6898
:1028E8001846BD465DF8047B704700BF0000002015
:1028F80080B500AFFFF7F0FF0246054B9B689B0AC7
:1029080003F007030349CB5C22FA03F3184680BDA2
:1029180000380240B847000880B500AFFFF7DCFF79
:102928000246054B9B685B0B03F007030349CB5C2E
:1029380022FA03F3184680BD00380240B847000861
:1029480080B588B000AF786000237B6100233B61CD
:102958000023FB600023FB610023BB617B681B68CD
:1029680003F00103002B12D0694B9B68684A23F4DB
:1029780000039360664B9A687B685B6B64491343FA
:102988008B607B685B6B002B01D10123FB617B684B
:102998001B6803F40023002B17D05D4BD3F88C3051
:1029A80023F440127B68DB6B59491343C1F88C3020
:1029B8007B68DB6BB3F5801F01D10123FB617B686A
:1029C800DB6B002B01D10123BB617B681B6803F41F
:1029D8008013002B17D04E4BD3F88C3023F44002D1
:1029E8007B681B6C4A491343C1F88C307B681B6CAD
:1029F800B3F5800F01D10123FB617B681B6C002BB1
:102A080001D10123BB617B681B6803F08073002B35
:102A180001D00123FB617B681B6803F02003002BB6
:102A280000F08B803A4B1B6C394A43F08053136497
:102A3800374B1B6C03F08053BB60BB68354B1B687E
:102A4800344A43F480731360FEF73EFA786108E075
:102A5800FEF73AFA02467B69D31A642B01D903239D
:102A68008FE32C4B1B6803F48073002BF0D0284BAA
:102A78001B6F03F440733B613B69002B35D07B68C7
:102A88001B6B03F440733A699A422ED0204B1B6F9C
:102A980023F440733B611E4B1B6F1D4A43F4803384
:102AA80013671B4B1B6F1A4A23F480331367184AAA
:102AB8003B691367164B1B6F03F00103012B14D1FD
:102AC800FEF702FA78610AE0FEF7FEF902467B6932
:102AD800D31A41F28832934201D9032351E30C4BB4
:102AE8001B6F03F00203002BEED07B681B6B03F413
:102AF8004073B3F5407F11D1054B9B6823F4F8125E
:102B08007B68196B044B0B40014913438B600BE046
:102B18000038024000700040FFFCFF0FAC4B9B6880
:102B2800AB4A23F4F8139360A94B1A6F7B681B6BAD
:102B3800C3F30B03A64913430B677B681B6803F0B9
:102B48001003002B10D0A24BD3F88C30A04A23F0EE
:102B58008073C2F88C309E4BD3F88C207B689B6BBB
:102B68009B491343C1F88C307B681B6803F480438E
:102B7800002B0AD0964BD3F8903023F440327B6870
:102B88005B6E93491343C1F890307B681B6803F46C
:102B98000043002B0AD08E4BD3F8903023F4402208
:102BA8007B689B6E8A491343C1F890307B681B6829
:102BB80003F48033002B0AD0854BD3F8903023F4EC
:102BC80040127B68DB6E82491343C1F890307B6802
:102BD8001B6803F40033002B0AD07D4BD3F89030E8
:102BE80023F440027B681B6F79491343C1F8903086
:102BF8007B681B6803F04003002B0AD0744BD3F8A2
:102C0800903023F003027B685B6C71491343C1F871
:102C180090307B681B6803F08003002B0AD06C4B54
:102C2800D3F8903023F00C027B689B6C68491343FF
:102C3800C1F890307B681B6803F48073002B0AD0BE
:102C4800634BD3F8903023F030027B68DB6C60492B
:102C58001343C1F890307B681B6803F40073002BA2
:102C68000AD05B4BD3F8903023F0C0027B681B6D11
:102C780057491343C1F890307B681B6803F480639D
:102C8800002B0AD0524BD3F8903023F440727B6863
:102C98005B6D4F491343C1F890307B681B6803F4A0
:102CA8000063002B0AD04A4BD3F8903023F44062DB
:102CB8007B689B6D46491343C1F890307B681B685D
:102CC80003F48053002B0AD0414BD3F8903023F4FF
:102CD80040527B68DB6D3E491343C1F890307B68F6
:102CE8001B6803F40053002B0AD0394BD3F89030FB
:102CF80023F440427B681B6E35491343C1F890307A
:102D08007B681B6803F48003002B0AD0304BD3F890
:102D1800903023F080627B689B6F2D491343C1F884
:102D280090307B681B6803F40013002B11D0284BEC
:102D3800D3F8903023F000627B68DB6F244913439B
:102D4800C1F890307B68DB6FB3F1006F01D10123CC
:102D5800BB617B681B6803F00803002B01D00123CB
:102D6800BB617B681B6803F48023002B0AD0184BD7
:102D7800D3F8903023F040727B685B6F144913439B
:102D8800C1F890307B681B6803F40003002B0BD05C
:102D98000F4BD3F8903023F080527B68D3F8803003
:102DA8000B491343C1F890307B681B6803F08063BC
:102DB800002B0FD0064BD3F8903023F000527B68DD
:102DC800D3F8843002491343C1F8903002E000BFC1
:102DD800003802407B681B6803F00063002B0BD0AF
:102DE8008A4BD3F88C3023F000727B68D3F8883094
:102DF80086491343C1F88C307B681B6803F0805305
:102E0800002B0BD0814BD3F88C3023F080627B6889
:102E1800D3F88C307D491343C1F88C30FB69012B02
:102E280006D07B681B6803F00073002B00F0D68087
:102E3800764B1B68754A23F080631360FEF744F8ED
:102E4800786108E0FEF740F802467B69D31A642BE4
:102E580001D9032395E16D4B1B6803F00063002B38
:102E6800F0D17B681B6803F00103002B21D07B683D
:102E78005B6B002B1DD1654BD3F884301B0C03F022
:102E880003033B61614BD3F884301B0E03F00F033F
:102E9800FB607B685B689A013B691B041A43FB680B
:102EA8001B061A437B689B681B0758491343C1F8E4
:102EB80084307B681B6803F40023002B04D07B68F4
:102EC800DB6BB3F5801F0AD07B681B6803F48013A3
:102ED800002B2ED07B681B6CB3F5800F29D14B4B90
:102EE800D3F884301B0C03F003033B61474BD3F842
:102EF80084301B0F03F00703FB607B685B689A0153
:102F08003B691B041A437B68DB681B061A43FB6892
:102F18001B073E491343C1F884303C4BD3F88C302F
:102F280023F01F027B685B6A013B38491343C1F8F1
:102F38008C307B681B6803F08073002B1DD0334BEB
:102F4800D3F884301B0E03F00F033B612F4BD3F8EB
:102F580084301B0F03F00703FB607B685B689A01F2
:102F68007B681B691B041A433B691B061A43FB68F1
:102F78001B0726491343C1F884307B681B6803F09C
:102F88000073002B11D07B685B689A017B681B6912
:102F98001B041A437B68DB681B061A437B689B6823
:102FA8001B071A491343C1F88430184B1B68174A8A
:102FB80043F080631360FDF787FF786108E0FDF751
:102FC80083FF02467B69D31A642B01D90323D8E017
:102FD8000E4B1B6803F00063002BF0D0BB69012B7C
:102FE80040F0CE80094B1B68084A23F080531360D9
:102FF800FDF76AFF78610BE0FDF766FF02467B6923
:10300800D31A642B04D90323BBE000BF0038024065
:103018005E4B1B6803F00053B3F1005FECD07B6894
:103028001B6803F40023002B03D07B68DB6B002BA9
:1030380009D07B681B6803F48013002B2ED07B68B3
:103048001B6C002B2AD1514BD3F888301B0C03F092
:1030580003033B614D4BD3F888301B0F03F0070384
:10306800FB607B685B699A013B691B041A437B68B8
:103078009B691B061A43FB681B0744491343C1F8A5
:103088008830424BD3F88C3023F4F8527B689B6A23
:10309800013B1B023D491343C1F88C307B681B6818
:1030A80003F40013002B22D07B68DB6FB3F1006FB1
:1030B8001DD1364BD3F888301B0E03F00F033B614C
:1030C800324BD3F888301B0F03F00703FB607B6893
:1030D8005B699A017B681B6A1B041A433B691B06E0
:1030E8001A43FB681B0729491343C1F888307B68DA
:1030F8001B6803F00803002B28D0244BD3F8883032
:103108001B0E03F00F033B61204BD3F888301B0CD8
:1031180003F00303FB607B685B699A01FB681B048F
:103128001A433B691B061A437B68DB691B0717496F
:103138001343C1F88830154BD3F88C3023F4403250
:103148007B68DB6A11491343C1F88C300F4B1B684D
:103158000E4A43F080531360FDF7B6FE786108E02D
:10316800FDF7B2FE02467B69D31A642B01D903230B
:1031780007E0064B1B6803F00053B3F1005FEFD183
:10318800002318462037BD4680BD00BF00380240E6
:1031980080B582B000AF78607B68002B01D1012335
:1031A80049E07B6893F83D30DBB2002B06D17B68A1
:1031B800002283F83C207868FDF7D6FC7B68022261
:1031C80083F83D207B681A687B68043319461046EB
:1031D80000F06EF97B68012283F848207B680122A1
:1031E80083F83E207B68012283F83F207B68012218
:1031F80083F840207B68012283F841207B68012204
:1032080083F842207B68012283F843207B680122EF
:1032180083F844207B68012283F845207B680122DB
:1032280083F846207B68012283F847207B680122C7
:1032380083F83D20002318460837BD4680BD80B579
:1032480084B000AF78607B681B68DB68FB607B68D4
:103258001B681B69BB60BB6803F00203002B20D00E
:10326800FB6803F00203002B1BD07B681B686FF020
:1032780002021A617B6801221A777B681B689B69C6
:1032880003F00303002B03D0786800F0F3F805E09F
:10329800786800F0E5F8786800F0F6F87B680022B6
:1032A8001A77BB6803F00403002B20D0FB6803F0F7
:1032B8000403002B1BD07B681B686FF004021A61A3
:1032C8007B6802221A777B681B689B6903F440734A
:1032D800002B03D0786800F0CDF805E0786800F09E
:1032E800BFF8786800F0D0F87B6800221A77BB68CE
:1032F80003F00803002B20D0FB6803F00803002B21
:103308001BD07B681B686FF008021A617B68042277
:103318001A777B681B68DB6903F00303002B03D073
:10332800786800F0A7F805E0786800F099F8786800
:1033380000F0AAF87B6800221A77BB6803F0100334
:10334800002B20D0FB6803F01003002B1BD07B68F8
:103358001B686FF010021A617B6808221A777B6875
:103368001B68DB6903F44073002B03D0786800F016
:1033780081F805E0786800F073F8786800F084F860
:103388007B6800221A77BB6803F00103002B0CD07E
:10339800FB6803F00103002B07D07B681B686FF004
:1033A80001021A61786800F051F8BB6803F08003E5
:1033B800002B04D1BB6803F40053002B0CD0FB682E
:1033C80003F08003002B07D07B681B686FF4025260
:1033D8001A61786800F0AAF9BB6803F48073002BBF
:1033E8000CD0FB6803F08003002B07D07B681B68B8
:1033F8006FF480721A61786800F0A2F9BB6803F074
:103408004003002B0CD0FB6803F04003002B07D0CF
:103418007B681B686FF040021A61786800F03EF81C
:10342800BB6803F02003002B0CD0FB6803F02003DB
:10343800002B07D07B681B686FF020021A61786840
:1034480000F06AF900BF1037BD4680BD80B483B074
:1034580000AF786000BF0C37BD465DF8047B70474D
:1034680080B483B000AF786000BF0C37BD465DF80C
:10347800047B704780B483B000AF786000BF0C371E
:10348800BD465DF8047B704780B483B000AF7860B8
:1034980000BF0C37BD465DF8047B704780B483B02D
:1034A80000AF786000BF0C37BD465DF8047B7047FD
:1034B80080B485B000AF786039607B681B68FB60BA
:1034C8007B68434A934213D07B68B3F1804F0FD097
:1034D8007B68404A93420BD07B683F4A934207D0AF
:1034E8007B683E4A934203D07B683D4A934208D1A9
:1034F800FB6823F07003FB603B685B68FA68134362
:10350800FB607B68324A93422BD07B68B3F1804FD3
:1035180027D07B682F4A934223D07B682E4A934258
:103528001FD07B682D4A93421BD07B682C4A93425C
:1035380017D07B682B4A934213D07B682A4A934260
:103548000FD07B68294A93420BD07B68284A934264
:1035580007D07B68274A934203D07B68264A934268
:1035680008D1FB6823F44073FB603B68DB68FA68AA
:103578001343FB60FB6823F080023B685B691343DD
:10358800FB603B689A687B68DA623B681A687B680C
:103598009A627B680E4A934203D07B68104A934232
:1035A80003D13B681A697B681A637B681B6843F020
:1035B80004027B681A607B6801225A617B68FA689A
:1035C8001A6000BF1437BD465DF8047B704700BF22
:1035D800000001400004004000080040000C0040CA
:1035E80000040140004001400044014000480140FF
:1035F80000180040001C00400020004080B485B046
:1036080000AF786039607B6893F83C30012B01D1BA
:1036180002236DE07B68012283F83C207B6802224C
:1036280083F83D207B681B685B68FB607B681B68D0
:103638009B68BB607B681B68304A934204D07B68F8
:103648001B682F4A934208D1FB6823F47003FB6080
:103658003B685B68FA681343FB60FB6823F0700300
:10366800FB603B681B68FA681343FB607B681B6858
:10367800FA685A607B681B68204A934222D07B68AC
:103688001B68B3F1804F1DD07B681B681D4A9342AD
:1036980018D07B681B681C4A934213D07B681B6850
:1036A8001A4A93420ED07B681B68154A934209D088
:1036B8007B681B68164A934204D07B681B68154ACE
:1036C80093420CD1BB6823F08003BB603B689B68C6
:1036D800BA681343BB607B681B68BA689A607B68EA
:1036E800012283F83D207B68002283F83C200023D8
:1036F80018461437BD465DF8047B7047000001404A
:10370800000401400004004000080040000C004094
:10371800004001400018004080B483B000AF7860DA
:1037280000BF0C37BD465DF8047B704780B483B09A
:1037380000AF786000BF0C37BD465DF8047B70476A
:1037480080B483B000AF786000BF0C37BD465DF829
:10375800047B704780B582B000AF78607B68002B2F
:1037680001D1012340E07B68DB6F002B06D17B6829
:10377800002283F878207868FDF74CFA7B682422C9
:10378800DA677B681B681A687B681B6822F001028D
:103798001A607B685B6A002B02D0786800F08CFAAC
:1037A800786800F025F80346012B01D101231BE0BE
:1037B8007B681B685A687B681B6822F490425A60D1
:1037C8007B681B689A687B681B6822F02A029A60EB
:1037D8007B681B681A687B681B6842F001021A60E4
:1037E800786800F00BFB034618460837BD4680BDD5
:1037F80080B588B000AF78600023BB777B689A6893
:103808007B681B691A437B685B691A437B68DB69C1
:1038180013437B617B681B681A68A64B13407A6860
:10382800126879690B4313607B681B685B6823F433
:1038380040517B68DA687B681B680A435A607B687A
:103848009B697B617B681B6A7A6913437B617B6830
:103858001B689B6823F430617B681B687A690A439C
:103868009A607B681B68944A934220D1934BD3F8A3
:10387800903003F00303032B16D801A252F823F06B
:1038880099380008A53800089F380008AB380008A8
:103898000123FB7750E10223FB774DE10423FB77FB
:1038A8004AE10823FB7747E11023FB7744E17B6873
:1038B8001B68834A934232D1804BD3F8903003F08F
:1038C8000C030C2B28D801A252F823F00939000860
:1038D8002139000821390008213900081539000864
:1038E8002139000821390008213900080F3900085A
:1038F8002139000821390008213900081B3900083E
:103908000023FB7718E10223FB7715E10423FB77FB
:1039180012E10823FB770FE11023FB770CE17B68AA
:103928001B68684A934220D1644BD3F8903003F067
:103938003003302B13D0302B14D8202B09D0202B58
:1039480010D8002B02D0102B06D00BE00023FB77F9
:10395800F2E00223FB77EFE00423FB77ECE0082397
:10396800FB77E9E01023FB77E6E07B681B68564AA3
:10397800934220D1514BD3F8903003F0C003C02BB1
:1039880013D0C02B14D8802B09D0802B10D8002B33
:1039980002D0402B06D00BE00023FB77CCE00223BB
:1039A800FB77C9E00423FB77C6E00823FB77C3E075
:1039B8001023FB77C0E07B681B68444A934225D1FB
:1039C8003E4BD3F8903003F44073B3F5407F17D0E3
:1039D800B3F5407F17D8B3F5007F0BD0B3F5007F60
:1039E80011D8002B03D0B3F5807F06D00BE000235D
:1039F800FB77A1E00223FB779EE00423FB779BE0A3
:103A08000823FB7798E01023FB7795E07B681B6819
:103A18002F4A934225D1294BD3F8903003F44063C1
:103A2800B3F5406F17D0B3F5406F17D8B3F5006FF3
:103A38000BD0B3F5006F11D8002B03D0B3F5806F0E
:103A480006D00BE00123FB7776E00223FB7773E0D7
:103A58000423FB7770E00823FB776DE01023FB77E6
:103A68006AE07B681B681B4A934238D1134BD3F832
:103A7800903003F44053B3F5405F17D0B3F5405F7F
:103A88002AD8B3F5005F0BD0B3F5005F24D8002B1C
:103A980003D0B3F5805F06D01EE00023FB774BE030
:103AA8000223FB7748E00423FB7745E00823FB77F4
:103AB80042E000BFF369FFEF001001400038024008
:103AC8000044004000480040004C004000500040C6
:103AD80000140140007800401023FB772CE07B683D
:103AE8001B68724A934225D1714BD3F8903003F486
:103AF8004043B3F5404F17D0B3F5404F17D8B3F54F
:103B0800004F0BD0B3F5004F11D8002B03D0B3F5FD
:103B1800804F06D00BE00023FB770DE00223FB77F4
:103B28000AE00423FB7707E00823FB7704E010236F
:103B3800FB7701E01023FB777B68DB69B3F5004F67
:103B48005BD1FB7F082B28D801A252F823F000BFD5
:103B58007D3B0008853B00088D3B0008A33B00081F
:103B6800933B0008A33B0008A33B0008A33B0008C5
:103B78009B3B0008FEF7BCFEB86113E0FEF7CCFEE5
:103B8800B8610FE04B4BBB610CE0FEF79FFDB861DD
:103B980008E04FF40043BB6104E00023BB6101234C
:103BA800BB7700BFBB69002B74D0BB695A007B6828
:103BB8005B685B081A447B685B68B2FBF3F33B61A4
:103BC8003B690F2B16D93B69B3F5803F12D23B698D
:103BD8009BB223F00F03FB813B695B089BB203F0A8
:103BE80007039AB2FB891343FB817B681B68FA8938
:103BF800DA604FE00123BB774CE0FB7F082B28D825
:103C080001A252F823F000BF353C00083D3C0008F3
:103C1800453C00085B3C00084B3C00085B3C000846
:103C28005B3C00085B3C0008533C0008FEF760FE64
:103C3800B86113E0FEF770FEB8610FE01D4BBB6181
:103C48000CE0FEF743FDB86108E04FF40043BB61A8
:103C580004E00023BB610123BB7700BFBB69002BD5
:103C680018D07B685B685A08BB691A447B685B6834
:103C7800B2FBF3F33B613B690F2B09D93B69B3F501
:103C8800803F05D23B699AB27B681B68DA6001E025
:103C98000123BB777B6800229A667B680022DA667C
:103CA800BB7F18462037BD4680BD00BF007C004062
:103CB800003802400024F40080B483B000AF78607C
:103CC8007B685B6A03F00803002B0AD07B681B68DB
:103CD8005B6823F400417B685A6B7B681B680A4366
:103CE8005A607B685B6A03F00103002B0AD07B688B
:103CF8001B685B6823F400317B689A6A7B681B68E1
:103D08000A435A607B685B6A03F00203002B0AD0FF
:103D18007B681B685B6823F480317B68DA6A7B68A0
:103D28001B680A435A607B685B6A03F00403002B34
:103D38000AD07B681B685B6823F480217B681A6B58
:103D48007B681B680A435A607B685B6A03F0100350
:103D5800002B0AD07B681B689B6823F480517B6822
:103D68009A6B7B681B680A439A607B685B6A03F0FE
:103D78002003002B0AD07B681B689B6823F4005142
:103D88007B68DA6B7B681B680A439A607B685B6AAE
:103D980003F04003002B1AD07B681B685B6823F490
:103DA80080117B681A6C7B681B680A435A607B68C1
:103DB8001B6CB3F5801F0AD17B681B685B6823F412
:103DC800C0017B685A6C7B681B680A435A607B6831
:103DD8005B6A03F08003002B0AD07B681B685B6872
:103DE80023F400217B689A6C7B681B680A435A603D
:103DF80000BF0C37BD465DF8047B704780B598B0AE
:103E080002AF78607B680022C3F88420FDF75CF875
:103E180078657B681B681B6803F00803082B2ED1A4
:103E28006FF07E4300937B6D00224FF40011786899
:103E380000F08CF80346002B21D07B681B68BB631D
:103E4800BB6B53E8003F7B637B6B23F080033B65D0
:103E58007B681B681A463B6D7B643A64396C7A6CE4
:103E680041E80023FB63FB6B002BE6D17B68202233
:103E7800DA677B68002283F87820032362E07B6896
:103E88001B681B6803F00403042B49D16FF07E43C1
:103E980000937B6D00224FF48001786800F056F89B
:103EA8000346002B3CD07B681B687B627B6A53E827
:103EB800003F3B623B6A23F49073FB647B681B689A
:103EC8001A46FB6C3B63FA62F96A3A6B41E80023D5
:103ED800BB62BB6A002BE6D17B681B6808333B6179
:103EE8003B6953E8003FFB60FB6823F00103BB64B8
:103EF8007B681B680833BA6CFA61BB61B969FA69F7
:103F080041E800237B617B69002BE5D17B68202297
:103F1800C3F880207B68002283F87820032311E00F
:103F28007B682022DA677B682022C3F880207B68C0
:103F380000221A667B6800225A667B68002283F892
:103F48007820002318465837BD4680BD80B584B018
:103F580000AFF860B9603B601346FB714FE0BB6986
:103F6800B3F1FF3F4BD0FCF7AFFF02463B68D31AD3
:103F7800BA699A4202D3BB69002B01D103234EE0F0
:103F8800FB681B681B6803F00403002B37D0BB6871
:103F9800802B34D0BB68402B31D0FB681B68DB69B1
:103FA80003F00803082B10D1FB681B6808221A626B
:103FB800F86800F038F8FB680822C3F88420FB682A
:103FC800002283F87820012329E0FB681B68DB695D
:103FD80003F40063B3F5006F11D1FB681B684FF45D
:103FE80000621A62F86800F01EF8FB682022C3F825
:103FF8008420FB68002283F8782003230FE0FB6805
:104008001B68DA69BB681340BA689A420CBF01237F
:104018000023DBB21A46FB799A42A0D00023184647
:104028001037BD4680BD80B495B000AF78607B681E
:104038001B687B637B6B53E8003F3B633B6B23F45C
:104048009073FB647B681B681A46FB6C3B64FA63DD
:10405800F96B3A6C41E80023BB63BB6B002BE6D1DC
:104068007B681B6808333B623B6A53E8003FFB618F
:10407800FB6923F00103BB647B681B680833BA6CD7
:10408800FA62BB62B96AFA6A41E800237B627B6A1A
:10409800002BE5D17B681B6E012B18D17B681B6850
:1040A800FB60FB6853E8003FBB60BB6823F010036C
:1040B8007B647B681B681A467B6CBB617A61796993
:1040C800BA6941E800233B613B69002BE6D17B6874
:1040D8002022C3F880207B6800221A667B680022B1
:1040E8009A6600BF5437BD465DF8047B70470000F0
:1040F80084B080B584B000AF786007F11C0080E818
:104108000E0097F82130012B21D17B689B6B23F49B
:1041180080327B689A637B68DA68214B13407A683F
:10412800D3607B68DB6823F440127B68DA6097F819
:104138002830012B05D17B68DB6843F480127B684B
:10414800DA60786800F092FA0346FB7310E07B6847
:10415800DB6843F040027B68DA60786800F086FA32
:104168000346FB737B689B6B43F480327B689A63DE
:10417800BB7F012B0BD17B689B6843F006027B68F1
:104188009A607B689B6843F020027B689A60FB7B9F
:1041980018461037BD46BDE8804004B0704700BFE0
:1041A800BFFFBDFF80B483B000AF78607B689B68B9
:1041B80023F001027B689A60002318460C37BD463D
:1041C8005DF8047B704780B584B000AF78600B461B
:1041D800FB700023FB607B68DB6823F0C0427B68D0
:1041E800DA60FB78012B15D17B68DB6843F000525D
:1041F8007B68DA600A20FCF773FEFB680A33FB6011
:10420800786800F025FA0346012B1ED0FB68C72BFF
:10421800F0D91AE0FB78002B15D17B68DB6843F0F6
:1042280080427B68DA600A20FCF75AFEFB680A3392
:10423800FB60786800F00CFA0346002B05D0FB6899
:10424800C72BF0D901E0012305E0FB68C82B01D199
:10425800012300E0002318461037BD4680BD00004A
:1042680084B080B586B000AF786007F1240080E89C
:104278000E000023FB757B68FB6000233B6109E0AF
:104288007A683B6940339B00134400225A603B69BB
:1042980001333B613B690E2BF2D997F82E30002B86
:1042A8001CD1FB6803F500635B68FA6802F50062DD
:1042B80043F0020353607B689B6B23F400127B6816
:1042C8009A637B681B6843F040027B681A607B68CE
:1042D8001B6843F080027B681A6005E07B689B6B73
:1042E80043F400127B689A63FB6803F560631A461F
:1042F8000023136097F82930012B0DD197F8273048
:10430800002B04D10021786800F068F908E0012149
:10431800786800F063F903E00321786800F05EF93B
:104328001021786800F0FAF80346002B01D0012329
:10433800FB75786800F024F90346002B01D00123AF
:10434800FB75FB6803F500631A4600231361FB68DD
:1043580003F500631A4600235361FB6803F5006305
:104368001A460023D36100233B6143E03B695A01AD
:10437800FB68134403F510631B6803F00043B3F1B3
:10438800004F18D13B69002B0AD13B695A01FB68E1
:10439800134403F510631A464FF00063136013E0EB
:1043A8003B695A01FB68134403F510631A464FF042
:1043B8009043136008E03B695A01FB68134403F516
:1043C80010631A46002313603B695A01FB681344C3
:1043D80003F510631A46002313613B695A01FB6811
:1043E800134403F510631A464FF67F3393603B6915
:1043F80001333B6197F824301A463B699342B5D3A1
:1044080000233B6143E03B695A01FB68134403F511
:1044180030631B6803F00043B3F1004F18D13B69C8
:10442800002B0AD13B695A01FB68134403F530633A
:104438001A464FF00063136013E03B695A01FB68AA
:10444800134403F530631A464FF09043136008E0B5
:104458003B695A01FB68134403F530631A4600238D
:1044680013603B695A01FB68134403F530631A462D
:10447800002313613B695A01FB68134403F5306359
:104488001A464FF67F3393603B6901333B6197F8D7
:1044980024301A463B699342B5D3FB6803F50063A1
:1044A8001B69FA6802F5006223F4807313617B6864
:1044B80000229A617B686FF080425A6197F8263033
:1044C800002B05D17B689B6943F010027B689A61D9
:1044D8007B689A690F4B13437A68936197F82A307F
:1044E800002B05D07B689B6943F008027B689A61C2
:1044F80097F82E30012B05D17B689A69064B134338
:104508007A689361FB7D18461837BD46BDE8804040
:1045180004B0704700383C800400004080B485B087
:1045280000AF786039600023FB60FB680133FB60F3
:10453800FB68B3F1706F01D903231BE07B681B692B
:10454800002BF2DA0023FB603B689B0143F020025A
:104558007B681A61FB680133FB60FB68B3F1706F1D
:1045680001D9032306E07B681B6903F02003202B95
:10457800F0D0002318461437BD465DF8047B704719
:1045880080B485B000AF78600023FB60FB6801331E
:10459800FB60FB68B3F1706F01D9032318E07B68F7
:1045A8001B69002BF2DA0023FB607B6810221A617A
:1045B800FB680133FB60FB68B3F1706F01D903231B
:1045C80006E07B681B6903F01003102BF0D0002372
:1045D80018461437BD465DF8047B704780B485B033
:1045E80000AF78600B46FB707B68FB60FB6803F5E7
:1045F80000631A68FB78F96801F5006113430B60E2
:10460800002318461437BD465DF8047B704780B414
:1046180085B000AF78607B68FB60FB6803F560637A
:104628001B68FA6802F5606223F003031360FB68F5
:1046380003F500635B68FA6802F5006243F0020361
:104648005360002318461437BD465DF8047B704755
:1046580080B483B000AF78607B685B6903F00103C6
:1046680018460C37BD465DF8047B704780B485B0AA
:1046780000AF78600023FB60FB680133FB60FB68D8
:10468800B3F1706F01D9032322E07B681B69002B0B
:10469800F2DA0A23FB6002E0FB68013BFB60FB687F
:1046A800002BF9D17B681B6943F001027B681A6112
:1046B800FB680133FB60FB68B3F1706F01D903231A
:1046C80006E07B681B6903F00103012BF0D000238F
:1046D80018461437BD465DF8047B7047DFF834D0C0
:1046E800FCF7FAF90C480D490D4A002302E0D458AA
:1046F800C4500433C4188C42F9D30A4A0A4C002324
:1047080001E013600432A242FBD300F019F8FCF771
:10471800CDF8704700000820000000204C01002060
:10472800D04700084C01002010080020FEE7024492
:104738000346934200D1704703F8011BF9E70000D4
:1047480070B50D4B0D4D5B1B9C100026A64209D180
:1047580000F01AF80A4D0B4B5B1B9C100026A64272
:1047680005D170BD55F8043B98470136EEE755F87A
:10477800043B98470136F2E7C8470008C8470008D5
:10478800C8470008CC470008F8B500BFF8BC08BC0B
:104798009E467047F8B500BFF8BC08BC9E467047F7
:1047A80000000000000000000102030406070809D9
:0847B8000000000001020304EF
:0847C000A8BAFF7F0100000010
:0447C8001D020008C6
:0447CC00F9010008E7
:0C47D0000024F4001000000001000000B4
:1047DC0000000000000000000000000000000000CD
:1047EC0000000000000000000000000000000000BD
:1047FC0000000000000000000000000000000000AD
:10480C00000000000000000000000000000000009C
:10481C00000000000000000000000000000000008C
:10482C00000000000000000000000000000000007C
:10483C00000000000000000000000000000000006C
:10484C00000000000000000000000000000000005C
:10485C00000000000000000000000000000000004C
:10486C00000000000000000000000000000000003C
:10487C00000000000000000000000000000000002C
:10488C00000000000000000000000000000000001C
:10489C00000000000000000000000000000000000C
:1048AC0000000000000000000000000000000000FC
:1048BC0000000000000000000000000000000000EC
:1048CC0000000000000000000000000000000000DC
:1048DC0000000000000000000000000000000000CC
:1048EC0000000000000000000000000000000000BC
:1048FC0000000000000000000000000000000000AC
:10490C00000000000000000000000000000000009B
:04000005080046E5C4
:00000001FF
